Component: ARM Compiler 5.06 update 4 (build 422) Tool: armlink [4d35d2]

==============================================================================

Section Cross References

    main.o(i.DMA1_Channel7_IRQHandler) refers to comms_slave.o(i.set_TX_Complete_DATAbus_TX) for set_TX_Complete_DATAbus_TX
    main.o(i.SysTick_Handler) refers to databus_slave.o(i.update_DATAbus_Slave) for update_DATAbus_Slave
    main.o(i.SysTick_Handler) refers to sensors.o(i.increment_counter) for increment_counter
    main.o(i.SysTick_Handler) refers to data.o(i.increment_Data) for increment_Data
    main.o(i.SysTick_Handler) refers to main.o(.data) for SysTick_counter
    main.o(i.USART2_IRQHandler) refers to databus_slave.o(i.bus_Slave_RX_Buffer_Add) for bus_Slave_RX_Buffer_Add
    main.o(i.main) refers to clocks.o(i.port_clock_init) for port_clock_init
    main.o(i.main) refers to io.o(i.IO_init) for IO_init
    main.o(i.main) refers to io.o(i.TIM1_init) for TIM1_init
    main.o(i.main) refers to sensors.o(i.echo_pulse_in) for echo_pulse_in
    main.o(i.main) refers to io.o(i.bumper_init) for bumper_init
    main.o(i.main) refers to io.o(i.tilt_init) for tilt_init
    main.o(i.main) refers to comms_slave.o(i.comms_init) for comms_init
    main.o(i.main) refers to data.o(i.init_Table) for init_Table
    main.o(i.main) refers to databus_slave.o(i.init_DATAbus_Slave) for init_DATAbus_Slave
    main.o(i.main) refers to comms_slave.o(i.init_DATAbus_TX_Queue) for init_DATAbus_TX_Queue
    main.o(i.main) refers to data.o(i.set_Data) for set_Data
    main.o(i.main) refers to sensors.o(i.echo_config_1) for echo_config_1
==============================================================================

Removing Unused input sections from the image.

    Removing main.o(.rev16_text), (4 bytes).
    Removing main.o(.revsh_text), (4 bytes).
    Removing main.o(.rrx_text), (6 bytes).
    Removing io.o(.rev16_text), (4 bytes).
    Removing io.o(.revsh_text), (4 bytes).
    Removing io.o(.rrx_text), (6 bytes).
    Removing io.o(.data), (4 bytes).
    Removing clocks.o(.rev16_text), (4 bytes).
    Removing clocks.o(.revsh_text), (4 bytes).
    Removing clocks.o(.rrx_text), (6 bytes).
    Removing comms_slave.o(.rev16_text), (4 bytes).
    Removing comms_slave.o(.revsh_text), (4 bytes).
    Removing comms_slave.o(.rrx_text), (6 bytes).
    Removing databus_slave.o(.rev16_text), (4 bytes).
    Removing databus_slave.o(.revsh_text), (4 bytes).
    Removing databus_slave.o(.rrx_text), (6 bytes).
    Removing databus_slave.o(i.bus_Slave_Send_Broadcast_Request), (96 bytes).
    Removing databus_slave.o(i.bus_Slave_Send_Write_Request), (2 bytes).
==============================================================================

Image Symbol Table

    Local Symbols

    Symbol Name                              Value     Ov Type        Size  Object(Section)

    ../clib/angel/boardlib.s                 0x00000000   Number         0  boardshut.o ABSOLUTE
    ../clib/angel/boardlib.s                 0x00000000   Number         0  boardinit2.o ABSOLUTE
    ../clib/angel/boardlib.s                 0x00000000   Number         0  boardinit1.o ABSOLUTE
    ../clib/angel/boardlib.s                 0x00000000   Number         0  boardinit3.o ABSOLUTE
    ../clib/angel/handlers.s                 0x00000000   Number         0  __scatter_zi.o ABSOLUTE
    ../clib/angel/handlers.s                 0x00000000   Number         0  __scatter_copy.o ABSOLUTE
    ../clib/angel/kernel.s                   0x00000000   Number         0  __rtentry4.o ABSOLUTE
    ../clib/angel/kernel.s                   0x00000000   Number         0  rtexit.o ABSOLUTE
    ../clib/angel/kernel.s                   0x00000000   Number         0  rtexit2.o ABSOLUTE
    ../clib/angel/kernel.s                   0x00000000   Number         0  __rtentry2.o ABSOLUTE
    ../clib/angel/kernel.s                   0x00000000   Number         0  __rtentry.o ABSOLUTE
    ../clib/angel/rt.s                       0x00000000   Number         0  rt_raise.o ABSOLUTE
    ../clib/angel/scatter.s                  0x00000000   Number         0  __scatter.o ABSOLUTE
    ../clib/angel/startup.s                  0x00000000   Number         0  __main.o ABSOLUTE
    ../clib/angel/sys.s                      0x00000000   Number         0  use_no_semi.o ABSOLUTE
    ../clib/angel/sys.s                      0x00000000   Number         0  indicate_semi.o ABSOLUTE
    ../clib/angel/sys.s                      0x00000000   Number         0  libspace.o ABSOLUTE
    ../clib/angel/sys.s                      0x00000000   Number         0  sys_stackheap_outer.o ABSOLUTE
    ../clib/angel/sysapp.c                   0x00000000   Number         0  sys_command.o ABSOLUTE
    ../clib/angel/sysapp.c                   0x00000000   Number         0  sys_exit.o ABSOLUTE
    ../clib/angel/sysapp.c                   0x00000000   Number         0  sys_wrch.o ABSOLUTE
    ../clib/armsys.c                         0x00000000   Number         0  no_argv.o ABSOLUTE
    ../clib/armsys.c                         0x00000000   Number         0  argv_veneer.o ABSOLUTE
    ../clib/armsys.c                         0x00000000   Number         0  argv_veneer.o ABSOLUTE
    ../clib/armsys.c                         0x00000000   Number         0  _get_argv_nomalloc.o ABSOLUTE
    ../clib/heapalloc.c                      0x00000000   Number         0  hrguard.o ABSOLUTE
    ../clib/heapaux.c                        0x00000000   Number         0  heapauxi.o ABSOLUTE
    ../clib/libinit.s                        0x00000000   Number         0  libshutdown2.o ABSOLUTE
    ../clib/libinit.s                        0x00000000   Number         0  libshutdown.o ABSOLUTE
    ../clib/libinit.s                        0x00000000   Number         0  libinit.o ABSOLUTE
    ../clib/libinit.s                        0x00000000   Number         0  libinit2.o ABSOLUTE
    ../clib/memcpset.s                       0x00000000   Number         0  rt_memcpy_w.o ABSOLUTE
    ../clib/signal.c                         0x00000000   Number         0  defsig_cppl_inner.o ABSOLUTE
    ../clib/signal.c                         0x00000000   Number         0  defsig_pvfn_inner.o ABSOLUTE
    ../clib/signal.c                         0x00000000   Number         0  defsig_stak_inner.o ABSOLUTE
    ../clib/signal.c                         0x00000000   Number         0  defsig_rtred_inner.o ABSOLUTE
    ../clib/signal.c                         0x00000000   Number         0  defsig_abrt_inner.o ABSOLUTE
    ../clib/signal.c                         0x00000000   Number         0  defsig_rtmem_outer.o ABSOLUTE
    ../clib/signal.c                         0x00000000   Number         0  __raise.o ABSOLUTE
    ../clib/signal.c                         0x00000000   Number         0  defsig_rtmem_formal.o ABSOLUTE
    ../clib/signal.c                         0x00000000   Number         0  defsig_exit.o ABSOLUTE
    ../clib/signal.c                         0x00000000   Number         0  defsig_rtmem_inner.o ABSOLUTE
    ../clib/signal.c                         0x00000000   Number         0  defsig_fpe_inner.o ABSOLUTE
    ../clib/signal.c                         0x00000000   Number         0  defsig_general.o ABSOLUTE
    ../clib/signal.c                         0x00000000   Number         0  defsig_segv_inner.o ABSOLUTE
    ../clib/signal.c                         0x00000000   Number         0  defsig_other.o ABSOLUTE
    ../clib/signal.s                         0x00000000   Number         0  defsig.o ABSOLUTE
    ../clib/stdlib.c                         0x00000000   Number         0  exit.o ABSOLUTE
    ../fplib/ffixu.s                         0x00000000   Number         0  ffixu.o ABSOLUTE
    ../fplib/fflt.s                          0x00000000   Number         0  fflt_clz.o ABSOLUTE
    ../fplib/fmul.s                          0x00000000   Number         0  fmul.o ABSOLUTE
    ../fplib/fnaninf.s                       0x00000000   Number         0  fnaninf.o ABSOLUTE
    ../fplib/fpinit.s                        0x00000000   Number         0  fpinit.o ABSOLUTE
    ../fplib/fretinf.s                       0x00000000   Number         0  fretinf.o ABSOLUTE
    ../fplib/usenofp.s                       0x00000000   Number         0  usenofp.o ABSOLUTE
    DATAbus_slave.c                          0x00000000   Number         0  databus_slave.o ABSOLUTE
    DATAbus_slave.c                          0x00000000   Number         0  databus_slave.o ABSOLUTE
    Exceptions.c                             0x00000000   Number         0  exceptions.o ABSOLUTE
    Exceptions.c                             0x00000000   Number         0  exceptions.o ABSOLUTE
    RTE\Device\STM32F103VB\startup_stm32f10x_md.s 0x00000000   Number         0  startup_stm32f10x_md.o ABSOLUTE
    RTE\Device\STM32F103VB\system_stm32f10x.c 0x00000000   Number         0  system_stm32f10x.o ABSOLUTE
    RTE\\Device\\STM32F103VB\\system_stm32f10x.c 0x00000000   Number         0  system_stm32f10x.o ABSOLUTE
    clocks.c                                 0x00000000   Number         0  clocks.o ABSOLUTE
    clocks.c                                 0x00000000   Number         0  clocks.o ABSOLUTE
    comms_slave.c                            0x00000000   Number         0  comms_slave.o ABSOLUTE
    comms_slave.c                            0x00000000   Number         0  comms_slave.o ABSOLUTE
    data.c                                   0x00000000   Number         0  data.o ABSOLUTE
    data.c                                   0x00000000   Number         0  data.o ABSOLUTE
    dc.s                                     0x00000000   Number         0  dc.o ABSOLUTE
    io.c                                     0x00000000   Number         0  io.o ABSOLUTE
    io.c                                     0x00000000   Number         0  io.o ABSOLUTE
    main.c                                   0x00000000   Number         0  main.o ABSOLUTE
    main.c                                   0x00000000   Number         0  main.o ABSOLUTE
    sensors.c                                0x00000000   Number         0  sensors.o ABSOLUTE
    sensors.c                                0x00000000   Number         0  sensors.o ABSOLUTE
    RESET                                    0x08000000   Section      236  startup_stm32f10x_md.o(RESET)
    !!!main                                  0x080000ec   Section        8  __main.o(!!!main)
    !!!scatter                               0x080000f4   Section       52  __scatter.o(!!!scatter)
    !!handler_copy                           0x08000128   Section       26  __scatter_copy.o(!!handler_copy)
    !!handler_zi                             0x08000144   Section       28  __scatter_zi.o(!!handler_zi)
    .ARM.Collect$$libinit$$00000000          0x08000160   Section        2  libinit.o(.ARM.Collect$$libinit$$00000000)
    .ARM.Collect$$libinit$$00000002          0x08000162   Section        0  libinit2.o(.ARM.Collect$$libinit$$00000002)
    .ARM.Collect$$libinit$$00000004          0x08000162   Section        0  libinit2.o(.ARM.Collect$$libinit$$00000004)
    .ARM.Collect$$libinit$$0000000A          0x08000162   Section        0  libinit2.o(.ARM.Collect$$libinit$$0000000A)
    .ARM.Collect$$libinit$$0000000C          0x08000162   Section        0  libinit2.o(.ARM.Collect$$libinit$$0000000C)
    .ARM.Collect$$libinit$$0000000E          0x08000162   Section        0  libinit2.o(.ARM.Collect$$libinit$$0000000E)
    .ARM.Collect$$libinit$$00000011          0x08000162   Section        0  libinit2.o(.ARM.Collect$$libinit$$00000011)
    .ARM.Collect$$libinit$$00000013          0x08000162   Section        0  libinit2.o(.ARM.Collect$$libinit$$00000013)
    .ARM.Collect$$libinit$$00000015          0x08000162   Section        0  libinit2.o(.ARM.Collect$$libinit$$00000015)
    .ARM.Collect$$libinit$$00000017          0x08000162   Section        0  libinit2.o(.ARM.Collect$$libinit$$00000017)
    .ARM.Collect$$libinit$$00000019          0x08000162   Section        0  libinit2.o(.ARM.Collect$$libinit$$00000019)
    .ARM.Collect$$libinit$$0000001B          0x08000162   Section        0  libinit2.o(.ARM.Collect$$libinit$$0000001B)
    .ARM.Collect$$libinit$$0000001D          0x08000162   Section        0  libinit2.o(.ARM.Collect$$libinit$$0000001D)
    .ARM.Collect$$libinit$$0000001F          0x08000162   Section        0  libinit2.o(.ARM.Collect$$libinit$$0000001F)
    .ARM.Collect$$libinit$$00000021          0x08000162   Section        0  libinit2.o(.ARM.Collect$$libinit$$00000021)
    .ARM.Collect$$libinit$$00000023          0x08000162   Section        0  libinit2.o(.ARM.Collect$$libinit$$00000023)
    .ARM.Collect$$libinit$$00000025          0x08000162   Section        0  libinit2.o(.ARM.Collect$$libinit$$00000025)
    .ARM.Collect$$libinit$$0000002C          0x08000162   Section        0  libinit2.o(.ARM.Collect$$libinit$$0000002C)
    .ARM.Collect$$libinit$$0000002E          0x08000162   Section        0  libinit2.o(.ARM.Collect$$libinit$$0000002E)
    .ARM.Collect$$libinit$$00000030          0x08000162   Section        0  libinit2.o(.ARM.Collect$$libinit$$00000030)
    .ARM.Collect$$libinit$$00000032          0x08000162   Section        0  libinit2.o(.ARM.Collect$$libinit$$00000032)
    .ARM.Collect$$libinit$$00000033          0x08000162   Section        2  libinit2.o(.ARM.Collect$$libinit$$00000033)
    .ARM.Collect$$libshutdown$$00000000      0x08000164   Section        2  libshutdown.o(.ARM.Collect$$libshutdown$$00000000)
    .ARM.Collect$$libshutdown$$00000002      0x08000166   Section        0  libshutdown2.o(.ARM.Collect$$libshutdown$$00000002)
    .ARM.Collect$$libshutdown$$00000004      0x08000166   Section        0  libshutdown2.o(.ARM.Collect$$libshutdown$$00000004)
    .ARM.Collect$$libshutdown$$00000007      0x08000166   Section        0  libshutdown2.o(.ARM.Collect$$libshutdown$$00000007)
    .ARM.Collect$$libshutdown$$0000000A      0x08000166   Section        0  libshutdown2.o(.ARM.Collect$$libshutdown$$0000000A)
    .ARM.Collect$$libshutdown$$0000000C      0x08000166   Section        0  libshutdown2.o(.ARM.Collect$$libshutdown$$0000000C)
    .ARM.Collect$$libshutdown$$0000000F      0x08000166   Section        0  libshutdown2.o(.ARM.Collect$$libshutdown$$0000000F)
    .ARM.Collect$$libshutdown$$00000010      0x08000166   Section        2  libshutdown2.o(.ARM.Collect$$libshutdown$$00000010)
    .ARM.Collect$$rtentry$$00000000          0x08000168   Section        0  __rtentry.o(.ARM.Collect$$rtentry$$00000000)
    .ARM.Collect$$rtentry$$00000002          0x08000168   Section        0  __rtentry2.o(.ARM.Collect$$rtentry$$00000002)
    .ARM.Collect$$rtentry$$00000004          0x08000168   Section        6  __rtentry4.o(.ARM.Collect$$rtentry$$00000004)
    .ARM.Collect$$rtentry$$00000009          0x0800016e   Section        0  __rtentry2.o(.ARM.Collect$$rtentry$$00000009)
    .ARM.Collect$$rtentry$$0000000A          0x0800016e   Section        4  __rtentry2.o(.ARM.Collect$$rtentry$$0000000A)
    .ARM.Collect$$rtentry$$0000000C          0x08000172   Section        0  __rtentry2.o(.ARM.Collect$$rtentry$$0000000C)
    .ARM.Collect$$rtentry$$0000000D          0x08000172   Section        8  __rtentry2.o(.ARM.Collect$$rtentry$$0000000D)
    .ARM.Collect$$rtexit$$00000000           0x0800017a   Section        2  rtexit.o(.ARM.Collect$$rtexit$$00000000)
    .ARM.Collect$$rtexit$$00000002           0x0800017c   Section        0  rtexit2.o(.ARM.Collect$$rtexit$$00000002)
    .ARM.Collect$$rtexit$$00000003           0x0800017c   Section        4  rtexit2.o(.ARM.Collect$$rtexit$$00000003)
    .ARM.Collect$$rtexit$$00000004           0x08000180   Section        6  rtexit2.o(.ARM.Collect$$rtexit$$00000004)
    .text                                    0x08000188   Section       64  startup_stm32f10x_md.o(.text)
    .text                                    0x080001c8   Section      100  rt_memcpy_w.o(.text)
    .text                                    0x0800022c   Section        0  heapauxi.o(.text)
    .text                                    0x08000232   Section       74  sys_stackheap_outer.o(.text)
    .text                                    0x0800027c   Section        0  exit.o(.text)
    .text                                    0x08000290   Section        8  libspace.o(.text)
    .text                                    0x08000298   Section        0  sys_exit.o(.text)
    .text                                    0x080002a4   Section        2  use_no_semi.o(.text)
    .text                                    0x080002a6   Section        0  indicate_semi.o(.text)
    i.DMA1_Channel7_IRQHandler               0x080002a8   Section        0  main.o(i.DMA1_Channel7_IRQHandler)
    i.IO_init                                0x080002c0   Section        0  io.o(i.IO_init)
    i.SetSysClock                            0x080002ec   Section        0  system_stm32f10x.o(i.SetSysClock)
    SetSysClock                              0x080002ed   Thumb Code     8  system_stm32f10x.o(i.SetSysClock)
    i.SetSysClockTo72                        0x080002f4   Section        0  system_stm32f10x.o(i.SetSysClockTo72)
    SetSysClockTo72                          0x080002f5   Thumb Code   214  system_stm32f10x.o(i.SetSysClockTo72)
    i.SysTick_Handler                        0x080003d4   Section        0  main.o(i.SysTick_Handler)
    i.SystemInit                             0x08000414   Section        0  system_stm32f10x.o(i.SystemInit)
    i.TIM1_init                              0x08000474   Section        0  io.o(i.TIM1_init)
    i.TIM2_IRQHandler                        0x08000490   Section        0  sensors.o(i.TIM2_IRQHandler)
    i.TIM3_IRQHandler                        0x08000554   Section        0  sensors.o(i.TIM3_IRQHandler)
    i.TIM4_IRQHandler                        0x080006c8   Section        0  sensors.o(i.TIM4_IRQHandler)
    i.USART2_IRQHandler                      0x08000840   Section        0  main.o(i.USART2_IRQHandler)
    i.add_Error                              0x08000860   Section        0  exceptions.o(i.add_Error)
    i.bumper_init                            0x0800094c   Section        0  io.o(i.bumper_init)
    i.bus_Slave_RX_Buffer_Add                0x08000994   Section        0  databus_slave.o(i.bus_Slave_RX_Buffer_Add)
    i.bus_Slave_RX_Buffer_Reset              0x08000a40   Section        0  databus_slave.o(i.bus_Slave_RX_Buffer_Reset)
    i.bus_Slave_Send_Broadcast_Response      0x08000a9c   Section        0  databus_slave.o(i.bus_Slave_Send_Broadcast_Response)
    i.bus_Slave_Validate_Packet              0x08000b10   Section        0  databus_slave.o(i.bus_Slave_Validate_Packet)
    i.clearDisconnectErrorUltrasonic         0x08000c48   Section        0  sensors.o(i.clearDisconnectErrorUltrasonic)
    i.clearOutOfRangeErrorUltrasonic         0x08000c6c   Section        0  sensors.o(i.clearOutOfRangeErrorUltrasonic)
    i.comms_init                             0x08000c90   Section        0  comms_slave.o(i.comms_init)
    i.echo_config_1                          0x08000dc4   Section        0  sensors.o(i.echo_config_1)
    i.echo_config_2                          0x08000dfc   Section        0  sensors.o(i.echo_config_2)
    i.echo_pulse_in                          0x08000e34   Section        0  sensors.o(i.echo_pulse_in)
    i.get_Data                               0x08000fc8   Section        0  data.o(i.get_Data)
    i.increment_Data                         0x08000fe0   Section        0  data.o(i.increment_Data)
    i.increment_counter                      0x08001020   Section        0  sensors.o(i.increment_counter)
    i.init_DATAbus_Slave                     0x0800103c   Section        0  databus_slave.o(i.init_DATAbus_Slave)
    i.init_DATAbus_TX_Queue                  0x08001050   Section        0  comms_slave.o(i.init_DATAbus_TX_Queue)
    i.init_Table                             0x08001064   Section        0  data.o(i.init_Table)
    i.main                                   0x080010c0   Section        0  main.o(i.main)
    i.port_clock_init                        0x08001160   Section        0  clocks.o(i.port_clock_init)
    i.read_tilt                              0x0800119c   Section        0  sensors.o(i.read_tilt)
    i.remove_Error                           0x080011dc   Section        0  exceptions.o(i.remove_Error)
    i.send_Next_DATAbus_TX                   0x08001210   Section        0  comms_slave.o(i.send_Next_DATAbus_TX)
    i.set_Data                               0x080012b4   Section        0  data.o(i.set_Data)
    i.set_TX_Complete_DATAbus_TX             0x080012c8   Section        0  comms_slave.o(i.set_TX_Complete_DATAbus_TX)
    i.throwDisconnectErrorUltrasonic         0x080012e4   Section        0  sensors.o(i.throwDisconnectErrorUltrasonic)
    i.throwOutOfRangeErrorUltrasonic         0x08001310   Section        0  sensors.o(i.throwOutOfRangeErrorUltrasonic)
    i.tilt_init                              0x0800133c   Section        0  io.o(i.tilt_init)
    i.tim_input_init                         0x0800136c   Section        0  io.o(i.tim_input_init)
    i.tim_output_init                        0x08001464   Section        0  io.o(i.tim_output_init)
    i.transmit_Data                          0x080014dc   Section        0  data.o(i.transmit_Data)
    i.trigger_pulse_1                        0x08001608   Section        0  sensors.o(i.trigger_pulse_1)
    i.trigger_pulse_2                        0x0800168c   Section        0  sensors.o(i.trigger_pulse_2)
    i.update_DATAbus_Slave                   0x08001710   Section        0  databus_slave.o(i.update_DATAbus_Slave)
    x$fpl$ffixu                              0x0800188c   Section       62  ffixu.o(x$fpl$ffixu)
    x$fpl$ffltu                              0x080018cc   Section       38  fflt_clz.o(x$fpl$ffltu)
    x$fpl$fmul                               0x080018f4   Section      258  fmul.o(x$fpl$fmul)
    x$fpl$fnaninf                            0x080019f6   Section      140  fnaninf.o(x$fpl$fnaninf)
    x$fpl$fretinf                            0x08001a82   Section       10  fretinf.o(x$fpl$fretinf)
    x$fpl$usenofp                            0x08001a8c   Section        0  usenofp.o(x$fpl$usenofp)
    .data                                    0x20000000   Section       12  main.o(.data)
    SysTick_counter                          0x20000000   Data           4  main.o(.data)
    .data                                    0x2000000c   Section       18  databus_slave.o(.data)
    .data                                    0x2000001e   Section        2  data.o(.data)
    .data                                    0x20000020   Section       25  sensors.o(.data)
    .data                                    0x2000003c   Section       20  system_stm32f10x.o(.data)
    .bss                                     0x20000050   Section       72  comms_slave.o(.bss)
    .bss                                     0x20000098   Section     4364  databus_slave.o(.bss)
    .bss                                     0x200011a4   Section     1034  data.o(.bss)
    .bss                                     0x200015b0   Section       96  libspace.o(.bss)
    HEAP                                     0x20001610   Section      512  startup_stm32f10x_md.o(HEAP)
    Heap_Mem                                 0x20001610   Data         512  startup_stm32f10x_md.o(HEAP)
    STACK                                    0x20001810   Section     1024  startup_stm32f10x_md.o(STACK)
    Stack_Mem                                0x20001810   Data        1024  startup_stm32f10x_md.o(STACK)
    __initial_sp                             0x20001c10   Data           0  startup_stm32f10x_md.o(STACK)

    Global Symbols

    Symbol Name                              Value     Ov Type        Size  Object(Section)

    BuildAttributes$$THM_ISAv4$P$D$K$B$S$PE$A:L22UL41UL21$X:L11$S22US41US21$IEEE1$IW$USESV6$~STKCKD$USESV7$~SHL$OSPACE$ROPI$EBA8$UX$STANDARDLIB$REQ8$PRES8$EABIv2 0x00000000   Number         0  anon$$obj.o ABSOLUTE
    __ARM_use_no_argv                        0x00000000   Number         0  main.o ABSOLUTE
    __ARM_exceptions_init                     - Undefined Weak Reference
    __alloca_initialize                       - Undefined Weak Reference
    __arm_preinit_                            - Undefined Weak Reference
    __cpp_initialize__aeabi_                  - Undefined Weak Reference
    __cxa_finalize                            - Undefined Weak Reference
    __rt_locale                               - Undefined Weak Reference
    __sigvec_lookup                           - Undefined Weak Reference
    _atexit_init                              - Undefined Weak Reference
    _call_atexit_fns                          - Undefined Weak Reference
    _clock_init                               - Undefined Weak Reference
    _fp_trap_init                             - Undefined Weak Reference
    _fp_trap_shutdown                         - Undefined Weak Reference
    _get_lc_collate                           - Undefined Weak Reference
    _get_lc_ctype                             - Undefined Weak Reference
    _get_lc_monetary                          - Undefined Weak Reference
    _get_lc_numeric                           - Undefined Weak Reference
    _get_lc_time                              - Undefined Weak Reference
    _getenv_init                              - Undefined Weak Reference
    _handle_redirection                       - Undefined Weak Reference
    _init_alloc                               - Undefined Weak Reference
    _init_user_alloc                          - Undefined Weak Reference
    _initio                                   - Undefined Weak Reference
    _rand_init                                - Undefined Weak Reference
    _signal_finish                            - Undefined Weak Reference
    _signal_init                              - Undefined Weak Reference
    _terminate_alloc                          - Undefined Weak Reference
    _terminate_user_alloc                     - Undefined Weak Reference
    _terminateio                              - Undefined Weak Reference
    __Vectors_Size                           0x000000ec   Number         0  startup_stm32f10x_md.o ABSOLUTE
    __Vectors                                0x08000000   Data           4  startup_stm32f10x_md.o(RESET)
    __Vectors_End                            0x080000ec   Data           0  startup_stm32f10x_md.o(RESET)
    __main                                   0x080000ed   Thumb Code     8  __main.o(!!!main)
    __scatterload                            0x080000f5   Thumb Code     0  __scatter.o(!!!scatter)
    __scatterload_rt2                        0x080000f5   Thumb Code    44  __scatter.o(!!!scatter)
    __scatterload_rt2_thumb_only             0x080000f5   Thumb Code     0  __scatter.o(!!!scatter)
    __scatterload_null                       0x08000103   Thumb Code     0  __scatter.o(!!!scatter)
    __scatterload_copy                       0x08000129   Thumb Code    26  __scatter_copy.o(!!handler_copy)
    __scatterload_zeroinit                   0x08000145   Thumb Code    28  __scatter_zi.o(!!handler_zi)
    __rt_lib_init                            0x08000161   Thumb Code     0  libinit.o(.ARM.Collect$$libinit$$00000000)
    __rt_lib_init_alloca_1                   0x08000163   Thumb Code     0  libinit2.o(.ARM.Collect$$libinit$$0000002E)
    __rt_lib_init_argv_1                     0x08000163   Thumb Code     0  libinit2.o(.ARM.Collect$$libinit$$0000002C)
    __rt_lib_init_atexit_1                   0x08000163   Thumb Code     0  libinit2.o(.ARM.Collect$$libinit$$0000001B)
    __rt_lib_init_clock_1                    0x08000163   Thumb Code     0  libinit2.o(.ARM.Collect$$libinit$$00000021)
    __rt_lib_init_cpp_1                      0x08000163   Thumb Code     0  libinit2.o(.ARM.Collect$$libinit$$00000032)
    __rt_lib_init_exceptions_1               0x08000163   Thumb Code     0  libinit2.o(.ARM.Collect$$libinit$$00000030)
    __rt_lib_init_fp_1                       0x08000163   Thumb Code     0  libinit2.o(.ARM.Collect$$libinit$$00000002)
    __rt_lib_init_fp_trap_1                  0x08000163   Thumb Code     0  libinit2.o(.ARM.Collect$$libinit$$0000001F)
    __rt_lib_init_getenv_1                   0x08000163   Thumb Code     0  libinit2.o(.ARM.Collect$$libinit$$00000023)
    __rt_lib_init_heap_1                     0x08000163   Thumb Code     0  libinit2.o(.ARM.Collect$$libinit$$0000000A)
    __rt_lib_init_lc_collate_1               0x08000163   Thumb Code     0  libinit2.o(.ARM.Collect$$libinit$$00000011)
    __rt_lib_init_lc_ctype_1                 0x08000163   Thumb Code     0  libinit2.o(.ARM.Collect$$libinit$$00000013)
    __rt_lib_init_lc_monetary_1              0x08000163   Thumb Code     0  libinit2.o(.ARM.Collect$$libinit$$00000015)
    __rt_lib_init_lc_numeric_1               0x08000163   Thumb Code     0  libinit2.o(.ARM.Collect$$libinit$$00000017)
    __rt_lib_init_lc_time_1                  0x08000163   Thumb Code     0  libinit2.o(.ARM.Collect$$libinit$$00000019)
    __rt_lib_init_preinit_1                  0x08000163   Thumb Code     0  libinit2.o(.ARM.Collect$$libinit$$00000004)
    __rt_lib_init_rand_1                     0x08000163   Thumb Code     0  libinit2.o(.ARM.Collect$$libinit$$0000000E)
    __rt_lib_init_return                     0x08000163   Thumb Code     0  libinit2.o(.ARM.Collect$$libinit$$00000033)
    __rt_lib_init_signal_1                   0x08000163   Thumb Code     0  libinit2.o(.ARM.Collect$$libinit$$0000001D)
    __rt_lib_init_stdio_1                    0x08000163   Thumb Code     0  libinit2.o(.ARM.Collect$$libinit$$00000025)
    __rt_lib_init_user_alloc_1               0x08000163   Thumb Code     0  libinit2.o(.ARM.Collect$$libinit$$0000000C)
    __rt_lib_shutdown                        0x08000165   Thumb Code     0  libshutdown.o(.ARM.Collect$$libshutdown$$00000000)
    __rt_lib_shutdown_cpp_1                  0x08000167   Thumb Code     0  libshutdown2.o(.ARM.Collect$$libshutdown$$00000002)
    __rt_lib_shutdown_fp_trap_1              0x08000167   Thumb Code     0  libshutdown2.o(.ARM.Collect$$libshutdown$$00000007)
    __rt_lib_shutdown_heap_1                 0x08000167   Thumb Code     0  libshutdown2.o(.ARM.Collect$$libshutdown$$0000000F)
    __rt_lib_shutdown_return                 0x08000167   Thumb Code     0  libshutdown2.o(.ARM.Collect$$libshutdown$$00000010)
    __rt_lib_shutdown_signal_1               0x08000167   Thumb Code     0  libshutdown2.o(.ARM.Collect$$libshutdown$$0000000A)
    __rt_lib_shutdown_stdio_1                0x08000167   Thumb Code     0  libshutdown2.o(.ARM.Collect$$libshutdown$$00000004)
    __rt_lib_shutdown_user_alloc_1           0x08000167   Thumb Code     0  libshutdown2.o(.ARM.Collect$$libshutdown$$0000000C)
    __rt_entry                               0x08000169   Thumb Code     0  __rtentry.o(.ARM.Collect$$rtentry$$00000000)
    __rt_entry_presh_1                       0x08000169   Thumb Code     0  __rtentry2.o(.ARM.Collect$$rtentry$$00000002)
    __rt_entry_sh                            0x08000169   Thumb Code     0  __rtentry4.o(.ARM.Collect$$rtentry$$00000004)
    __rt_entry_li                            0x0800016f   Thumb Code     0  __rtentry2.o(.ARM.Collect$$rtentry$$0000000A)
    __rt_entry_postsh_1                      0x0800016f   Thumb Code     0  __rtentry2.o(.ARM.Collect$$rtentry$$00000009)
    __rt_entry_main                          0x08000173   Thumb Code     0  __rtentry2.o(.ARM.Collect$$rtentry$$0000000D)
    __rt_entry_postli_1                      0x08000173   Thumb Code     0  __rtentry2.o(.ARM.Collect$$rtentry$$0000000C)
    __rt_exit                                0x0800017b   Thumb Code     0  rtexit.o(.ARM.Collect$$rtexit$$00000000)
    __rt_exit_ls                             0x0800017d   Thumb Code     0  rtexit2.o(.ARM.Collect$$rtexit$$00000003)
    __rt_exit_prels_1                        0x0800017d   Thumb Code     0  rtexit2.o(.ARM.Collect$$rtexit$$00000002)
    __rt_exit_exit                           0x08000181   Thumb Code     0  rtexit2.o(.ARM.Collect$$rtexit$$00000004)
    Reset_Handler                            0x08000189   Thumb Code     8  startup_stm32f10x_md.o(.text)
    NMI_Handler                              0x08000191   Thumb Code     2  startup_stm32f10x_md.o(.text)
    HardFault_Handler                        0x08000193   Thumb Code     2  startup_stm32f10x_md.o(.text)
    MemManage_Handler                        0x08000195   Thumb Code     2  startup_stm32f10x_md.o(.text)
    BusFault_Handler                         0x08000197   Thumb Code     2  startup_stm32f10x_md.o(.text)
    UsageFault_Handler                       0x08000199   Thumb Code     2  startup_stm32f10x_md.o(.text)
    SVC_Handler                              0x0800019b   Thumb Code     2  startup_stm32f10x_md.o(.text)
    DebugMon_Handler                         0x0800019d   Thumb Code     2  startup_stm32f10x_md.o(.text)
    PendSV_Handler                           0x0800019f   Thumb Code     2  startup_stm32f10x_md.o(.text)
    ADC1_2_IRQHandler                        0x080001a3   Thumb Code     0  startup_stm32f10x_md.o(.text)
    CAN1_RX1_IRQHandler                      0x080001a3   Thumb Code     0  startup_stm32f10x_md.o(.text)
    CAN1_SCE_IRQHandler                      0x080001a3   Thumb Code     0  startup_stm32f10x_md.o(.text)
    DMA1_Channel1_IRQHandler                 0x080001a3   Thumb Code     0  startup_stm32f10x_md.o(.text)
    DMA1_Channel2_IRQHandler                 0x080001a3   Thumb Code     0  startup_stm32f10x_md.o(.text)
    DMA1_Channel3_IRQHandler                 0x080001a3   Thumb Code     0  startup_stm32f10x_md.o(.text)
    DMA1_Channel4_IRQHandler                 0x080001a3   Thumb Code     0  startup_stm32f10x_md.o(.text)
    DMA1_Channel5_IRQHandler                 0x080001a3   Thumb Code     0  startup_stm32f10x_md.o(.text)
    DMA1_Channel6_IRQHandler                 0x080001a3   Thumb Code     0  startup_stm32f10x_md.o(.text)
    EXTI0_IRQHandler                         0x080001a3   Thumb Code     0  startup_stm32f10x_md.o(.text)
    EXTI15_10_IRQHandler                     0x080001a3   Thumb Code     0  startup_stm32f10x_md.o(.text)
    EXTI1_IRQHandler                         0x080001a3   Thumb Code     0  startup_stm32f10x_md.o(.text)
    EXTI2_IRQHandler                         0x080001a3   Thumb Code     0  startup_stm32f10x_md.o(.text)
    EXTI3_IRQHandler                         0x080001a3   Thumb Code     0  startup_stm32f10x_md.o(.text)
    EXTI4_IRQHandler                         0x080001a3   Thumb Code     0  startup_stm32f10x_md.o(.text)
    EXTI9_5_IRQHandler                       0x080001a3   Thumb Code     0  startup_stm32f10x_md.o(.text)
    FLASH_IRQHandler                         0x080001a3   Thumb Code     0  startup_stm32f10x_md.o(.text)
    I2C1_ER_IRQHandler                       0x080001a3   Thumb Code     0  startup_stm32f10x_md.o(.text)
    I2C1_EV_IRQHandler                       0x080001a3   Thumb Code     0  startup_stm32f10x_md.o(.text)
    I2C2_ER_IRQHandler                       0x080001a3   Thumb Code     0  startup_stm32f10x_md.o(.text)
    I2C2_EV_IRQHandler                       0x080001a3   Thumb Code     0  startup_stm32f10x_md.o(.text)
    PVD_IRQHandler                           0x080001a3   Thumb Code     0  startup_stm32f10x_md.o(.text)
    RCC_IRQHandler                           0x080001a3   Thumb Code     0  startup_stm32f10x_md.o(.text)
    RTCAlarm_IRQHandler                      0x080001a3   Thumb Code     0  startup_stm32f10x_md.o(.text)
    RTC_IRQHandler                           0x080001a3   Thumb Code     0  startup_stm32f10x_md.o(.text)
    SPI1_IRQHandler                          0x080001a3   Thumb Code     0  startup_stm32f10x_md.o(.text)
    SPI2_IRQHandler                          0x080001a3   Thumb Code     0  startup_stm32f10x_md.o(.text)
    TAMPER_IRQHandler                        0x080001a3   Thumb Code     0  startup_stm32f10x_md.o(.text)
    TIM1_BRK_IRQHandler                      0x080001a3   Thumb Code     0  startup_stm32f10x_md.o(.text)
    TIM1_CC_IRQHandler                       0x080001a3   Thumb Code     0  startup_stm32f10x_md.o(.text)
    TIM1_TRG_COM_IRQHandler                  0x080001a3   Thumb Code     0  startup_stm32f10x_md.o(.text)
    TIM1_UP_IRQHandler                       0x080001a3   Thumb Code     0  startup_stm32f10x_md.o(.text)
    USART1_IRQHandler                        0x080001a3   Thumb Code     0  startup_stm32f10x_md.o(.text)
    USART3_IRQHandler                        0x080001a3   Thumb Code     0  startup_stm32f10x_md.o(.text)
    USBWakeUp_IRQHandler                     0x080001a3   Thumb Code     0  startup_stm32f10x_md.o(.text)
    USB_HP_CAN1_TX_IRQHandler                0x080001a3   Thumb Code     0  startup_stm32f10x_md.o(.text)
    USB_LP_CAN1_RX0_IRQHandler               0x080001a3   Thumb Code     0  startup_stm32f10x_md.o(.text)
    WWDG_IRQHandler                          0x080001a3   Thumb Code     0  startup_stm32f10x_md.o(.text)
    __user_initial_stackheap                 0x080001a5   Thumb Code     0  startup_stm32f10x_md.o(.text)
    __aeabi_memcpy4                          0x080001c9   Thumb Code     0  rt_memcpy_w.o(.text)
    __aeabi_memcpy8                          0x080001c9   Thumb Code     0  rt_memcpy_w.o(.text)
    __rt_memcpy_w                            0x080001c9   Thumb Code   100  rt_memcpy_w.o(.text)
    _memcpy_lastbytes_aligned                0x08000211   Thumb Code     0  rt_memcpy_w.o(.text)
    __use_two_region_memory                  0x0800022d   Thumb Code     2  heapauxi.o(.text)
    __rt_heap_escrow$2region                 0x0800022f   Thumb Code     2  heapauxi.o(.text)
    __rt_heap_expand$2region                 0x08000231   Thumb Code     2  heapauxi.o(.text)
    __user_setup_stackheap                   0x08000233   Thumb Code    74  sys_stackheap_outer.o(.text)
    exit                                     0x0800027d   Thumb Code    18  exit.o(.text)
    __user_libspace                          0x08000291   Thumb Code     8  libspace.o(.text)
    __user_perproc_libspace                  0x08000291   Thumb Code     0  libspace.o(.text)
    __user_perthread_libspace                0x08000291   Thumb Code     0  libspace.o(.text)
    _sys_exit                                0x08000299   Thumb Code     8  sys_exit.o(.text)
    __I$use$semihosting                      0x080002a5   Thumb Code     0  use_no_semi.o(.text)
    __use_no_semihosting_swi                 0x080002a5   Thumb Code     2  use_no_semi.o(.text)
    __semihosting_library_function           0x080002a7   Thumb Code     0  indicate_semi.o(.text)
    DMA1_Channel7_IRQHandler                 0x080002a9   Thumb Code    20  main.o(i.DMA1_Channel7_IRQHandler)
    IO_init                                  0x080002c1   Thumb Code    36  io.o(i.IO_init)
    SysTick_Handler                          0x080003d5   Thumb Code    54  main.o(i.SysTick_Handler)
    SystemInit                               0x08000415   Thumb Code    78  system_stm32f10x.o(i.SystemInit)
    TIM1_init                                0x08000475   Thumb Code    24  io.o(i.TIM1_init)
    TIM2_IRQHandler                          0x08000491   Thumb Code   188  sensors.o(i.TIM2_IRQHandler)
    TIM3_IRQHandler                          0x08000555   Thumb Code   360  sensors.o(i.TIM3_IRQHandler)
    TIM4_IRQHandler                          0x080006c9   Thumb Code   364  sensors.o(i.TIM4_IRQHandler)
    USART2_IRQHandler                        0x08000841   Thumb Code    26  main.o(i.USART2_IRQHandler)
    add_Error                                0x08000861   Thumb Code   236  exceptions.o(i.add_Error)
    bumper_init                              0x0800094d   Thumb Code    54  io.o(i.bumper_init)
    bus_Slave_RX_Buffer_Add                  0x08000995   Thumb Code   148  databus_slave.o(i.bus_Slave_RX_Buffer_Add)
    bus_Slave_RX_Buffer_Reset                0x08000a41   Thumb Code    68  databus_slave.o(i.bus_Slave_RX_Buffer_Reset)
    bus_Slave_Send_Broadcast_Response        0x08000a9d   Thumb Code   106  databus_slave.o(i.bus_Slave_Send_Broadcast_Response)
    bus_Slave_Validate_Packet                0x08000b11   Thumb Code   292  databus_slave.o(i.bus_Slave_Validate_Packet)
    clearDisconnectErrorUltrasonic           0x08000c49   Thumb Code    28  sensors.o(i.clearDisconnectErrorUltrasonic)
    clearOutOfRangeErrorUltrasonic           0x08000c6d   Thumb Code    28  sensors.o(i.clearOutOfRangeErrorUltrasonic)
    comms_init                               0x08000c91   Thumb Code   274  comms_slave.o(i.comms_init)
    echo_config_1                            0x08000dc5   Thumb Code    46  sensors.o(i.echo_config_1)
    echo_config_2                            0x08000dfd   Thumb Code    46  sensors.o(i.echo_config_2)
    echo_pulse_in                            0x08000e35   Thumb Code   390  sensors.o(i.echo_pulse_in)
    get_Data                                 0x08000fc9   Thumb Code    20  data.o(i.get_Data)
    increment_Data                           0x08000fe1   Thumb Code    60  data.o(i.increment_Data)
    increment_counter                        0x08001021   Thumb Code    22  sensors.o(i.increment_counter)
    init_DATAbus_Slave                       0x0800103d   Thumb Code    16  databus_slave.o(i.init_DATAbus_Slave)
    init_DATAbus_TX_Queue                    0x08001051   Thumb Code    16  comms_slave.o(i.init_DATAbus_TX_Queue)
    init_Table                               0x08001065   Thumb Code    88  data.o(i.init_Table)
    main                                     0x080010c1   Thumb Code   150  main.o(i.main)
    port_clock_init                          0x08001161   Thumb Code    54  clocks.o(i.port_clock_init)
    read_tilt                                0x0800119d   Thumb Code    60  sensors.o(i.read_tilt)
    remove_Error                             0x080011dd   Thumb Code    52  exceptions.o(i.remove_Error)
    send_Next_DATAbus_TX                     0x08001211   Thumb Code   150  comms_slave.o(i.send_Next_DATAbus_TX)
    set_Data                                 0x080012b5   Thumb Code    14  data.o(i.set_Data)
    set_TX_Complete_DATAbus_TX               0x080012c9   Thumb Code    20  comms_slave.o(i.set_TX_Complete_DATAbus_TX)
    throwDisconnectErrorUltrasonic           0x080012e5   Thumb Code    34  sensors.o(i.throwDisconnectErrorUltrasonic)
    throwOutOfRangeErrorUltrasonic           0x08001311   Thumb Code    34  sensors.o(i.throwOutOfRangeErrorUltrasonic)
    tilt_init                                0x0800133d   Thumb Code    44  io.o(i.tilt_init)
    tim_input_init                           0x0800136d   Thumb Code   232  io.o(i.tim_input_init)
    tim_output_init                          0x08001465   Thumb Code   110  io.o(i.tim_output_init)
    transmit_Data                            0x080014dd   Thumb Code   292  data.o(i.transmit_Data)
    trigger_pulse_1                          0x08001609   Thumb Code   120  sensors.o(i.trigger_pulse_1)
    trigger_pulse_2                          0x0800168d   Thumb Code   120  sensors.o(i.trigger_pulse_2)
    update_DATAbus_Slave                     0x08001711   Thumb Code   342  databus_slave.o(i.update_DATAbus_Slave)
    __aeabi_f2uiz                            0x0800188d   Thumb Code     0  ffixu.o(x$fpl$ffixu)
    _ffixu                                   0x0800188d   Thumb Code    62  ffixu.o(x$fpl$ffixu)
    __aeabi_ui2f                             0x080018cd   Thumb Code     0  fflt_clz.o(x$fpl$ffltu)
    _ffltu                                   0x080018cd   Thumb Code    38  fflt_clz.o(x$fpl$ffltu)
    __aeabi_fmul                             0x080018f5   Thumb Code     0  fmul.o(x$fpl$fmul)
    _fmul                                    0x080018f5   Thumb Code   258  fmul.o(x$fpl$fmul)
    __fpl_fnaninf                            0x080019f7   Thumb Code   140  fnaninf.o(x$fpl$fnaninf)
    __fpl_fretinf                            0x08001a83   Thumb Code    10  fretinf.o(x$fpl$fretinf)
    Region$$Table$$Base                      0x08001a8c   Number         0  anon$$obj.o(Region$$Table)
    __I$use$fp                               0x08001a8c   Number         0  usenofp.o(x$fpl$usenofp)
    Region$$Table$$Limit                     0x08001aac   Number         0  anon$$obj.o(Region$$Table)
    position                                 0x20000004   Data           4  main.o(.data)
    time_count                               0x20000008   Data           4  main.o(.data)
    status                                   0x2000000c   Data           4  databus_slave.o(.data)
    DATAbus_RX_Pos                           0x20000010   Data           1  databus_slave.o(.data)
    DATAbus_RX_Buffer_Active                 0x20000011   Data           1  databus_slave.o(.data)
    DATAbus_RX_len                           0x20000012   Data           2  databus_slave.o(.data)
    DATAbus_RX_Ready                         0x20000014   Data           1  databus_slave.o(.data)
    DATAbus_skip                             0x20000015   Data           1  databus_slave.o(.data)
    DATAbus_Validate_Active                  0x20000016   Data           1  databus_slave.o(.data)
    DATAbus_ECU_ID                           0x20000017   Data           1  databus_slave.o(.data)
    DATAbus_Response_Delay                   0x20000018   Data           2  databus_slave.o(.data)
    data_to_send                             0x2000001a   Data           1  databus_slave.o(.data)
    RX_timeout                               0x2000001c   Data           2  databus_slave.o(.data)
    transmit_pos                             0x2000001e   Data           2  data.o(.data)
    ultrasonic_outOfRange_indexes            0x20000020   Data           5  sensors.o(.data)
    ultrasonic_outOfRange_status             0x20000025   Data           5  sensors.o(.data)
    ultrasonic_disconnect_indexes            0x2000002a   Data           5  sensors.o(.data)
    ultrasonic_disconnect_status             0x2000002f   Data           5  sensors.o(.data)
    ultrasonic_error_count                   0x20000034   Data           5  sensors.o(.data)
    SystemCoreClock                          0x2000003c   Data           4  system_stm32f10x.o(.data)
    AHBPrescTable                            0x20000040   Data          16  system_stm32f10x.o(.data)
    DATAbus_TX_QUEUE                         0x20000050   Data          72  comms_slave.o(.bss)
    control_packet                           0x20000098   Data        1064  databus_slave.o(.bss)
    DATAbus_RX_Buffer                        0x200004c0   Data        3300  databus_slave.o(.bss)
    sensor_ECU                               0x200011a4   Data        1034  data.o(.bss)
    __libspace_start                         0x200015b0   Data          96  libspace.o(.bss)
    __temporary_stack_top$libspace           0x20001610   Data           0  libspace.o(.bss)



==============================================================================

Memory Map of the image

  Image Entry point : 0x080000ed

  Load Region LR_IROM1 (Base: 0x08000000, Size: 0x00001afc, Max: 0x00020000, ABSOLUTE)

    Execution Region ER_IROM1 (Base: 0x08000000, Size: 0x00001aac, Max: 0x00020000, ABSOLUTE)

    Base Addr    Size         Type   Attr      Idx    E Section Name        Object

    0x08000000   0x000000ec   Data   RO          526    RESET               startup_stm32f10x_md.o
    0x080000ec   0x00000008   Code   RO          583  * !!!main             c_w.l(__main.o)
    0x080000f4   0x00000034   Code   RO          757    !!!scatter          c_w.l(__scatter.o)
    0x08000128   0x0000001a   Code   RO          759    !!handler_copy      c_w.l(__scatter_copy.o)
    0x08000142   0x00000002   PAD
    0x08000144   0x0000001c   Code   RO          761    !!handler_zi        c_w.l(__scatter_zi.o)
    0x08000160   0x00000002   Code   RO          627    .ARM.Collect$$libinit$$00000000  c_w.l(libinit.o)
    0x08000162   0x00000000   Code   RO          634    .ARM.Collect$$libinit$$00000002  c_w.l(libinit2.o)
    0x08000162   0x00000000   Code   RO          636    .ARM.Collect$$libinit$$00000004  c_w.l(libinit2.o)
    0x08000162   0x00000000   Code   RO          639    .ARM.Collect$$libinit$$0000000A  c_w.l(libinit2.o)
    0x08000162   0x00000000   Code   RO          641    .ARM.Collect$$libinit$$0000000C  c_w.l(libinit2.o)
    0x08000162   0x00000000   Code   RO          643    .ARM.Collect$$libinit$$0000000E  c_w.l(libinit2.o)
    0x08000162   0x00000000   Code   RO          646    .ARM.Collect$$libinit$$00000011  c_w.l(libinit2.o)
    0x08000162   0x00000000   Code   RO          648    .ARM.Collect$$libinit$$00000013  c_w.l(libinit2.o)
    0x08000162   0x00000000   Code   RO          650    .ARM.Collect$$libinit$$00000015  c_w.l(libinit2.o)
    0x08000162   0x00000000   Code   RO          652    .ARM.Collect$$libinit$$00000017  c_w.l(libinit2.o)
    0x08000162   0x00000000   Code   RO          654    .ARM.Collect$$libinit$$00000019  c_w.l(libinit2.o)
    0x08000162   0x00000000   Code   RO          656    .ARM.Collect$$libinit$$0000001B  c_w.l(libinit2.o)
    0x08000162   0x00000000   Code   RO          658    .ARM.Collect$$libinit$$0000001D  c_w.l(libinit2.o)
    0x08000162   0x00000000   Code   RO          660    .ARM.Collect$$libinit$$0000001F  c_w.l(libinit2.o)
    0x08000162   0x00000000   Code   RO          662    .ARM.Collect$$libinit$$00000021  c_w.l(libinit2.o)
    0x08000162   0x00000000   Code   RO          664    .ARM.Collect$$libinit$$00000023  c_w.l(libinit2.o)
    0x08000162   0x00000000   Code   RO          666    .ARM.Collect$$libinit$$00000025  c_w.l(libinit2.o)
    0x08000162   0x00000000   Code   RO          670    .ARM.Collect$$libinit$$0000002C  c_w.l(libinit2.o)
    0x08000162   0x00000000   Code   RO          672    .ARM.Collect$$libinit$$0000002E  c_w.l(libinit2.o)
    0x08000162   0x00000000   Code   RO          674    .ARM.Collect$$libinit$$00000030  c_w.l(libinit2.o)
    0x08000162   0x00000000   Code   RO          676    .ARM.Collect$$libinit$$00000032  c_w.l(libinit2.o)
    0x08000162   0x00000002   Code   RO          677    .ARM.Collect$$libinit$$00000033  c_w.l(libinit2.o)
    0x08000164   0x00000002   Code   RO          697    .ARM.Collect$$libshutdown$$00000000  c_w.l(libshutdown.o)
    0x08000166   0x00000000   Code   RO          710    .ARM.Collect$$libshutdown$$00000002  c_w.l(libshutdown2.o)
    0x08000166   0x00000000   Code   RO          712    .ARM.Collect$$libshutdown$$00000004  c_w.l(libshutdown2.o)
    0x08000166   0x00000000   Code   RO          715    .ARM.Collect$$libshutdown$$00000007  c_w.l(libshutdown2.o)
    0x08000166   0x00000000   Code   RO          718    .ARM.Collect$$libshutdown$$0000000A  c_w.l(libshutdown2.o)
    0x08000166   0x00000000   Code   RO          720    .ARM.Collect$$libshutdown$$0000000C  c_w.l(libshutdown2.o)
    0x08000166   0x00000000   Code   RO          723    .ARM.Collect$$libshutdown$$0000000F  c_w.l(libshutdown2.o)
    0x08000166   0x00000002   Code   RO          724    .ARM.Collect$$libshutdown$$00000010  c_w.l(libshutdown2.o)
    0x08000168   0x00000000   Code   RO          597    .ARM.Collect$$rtentry$$00000000  c_w.l(__rtentry.o)
    0x08000168   0x00000000   Code   RO          604    .ARM.Collect$$rtentry$$00000002  c_w.l(__rtentry2.o)
    0x08000168   0x00000006   Code   RO          616    .ARM.Collect$$rtentry$$00000004  c_w.l(__rtentry4.o)
    0x0800016e   0x00000000   Code   RO          606    .ARM.Collect$$rtentry$$00000009  c_w.l(__rtentry2.o)
    0x0800016e   0x00000004   Code   RO          607    .ARM.Collect$$rtentry$$0000000A  c_w.l(__rtentry2.o)
    0x08000172   0x00000000   Code   RO          609    .ARM.Collect$$rtentry$$0000000C  c_w.l(__rtentry2.o)
    0x08000172   0x00000008   Code   RO          610    .ARM.Collect$$rtentry$$0000000D  c_w.l(__rtentry2.o)
    0x0800017a   0x00000002   Code   RO          631    .ARM.Collect$$rtexit$$00000000  c_w.l(rtexit.o)
    0x0800017c   0x00000000   Code   RO          679    .ARM.Collect$$rtexit$$00000002  c_w.l(rtexit2.o)
    0x0800017c   0x00000004   Code   RO          680    .ARM.Collect$$rtexit$$00000003  c_w.l(rtexit2.o)
    0x08000180   0x00000006   Code   RO          681    .ARM.Collect$$rtexit$$00000004  c_w.l(rtexit2.o)
    0x08000186   0x00000002   PAD
    0x08000188   0x00000040   Code   RO          527    .text               startup_stm32f10x_md.o
    0x080001c8   0x00000064   Code   RO          579    .text               c_w.l(rt_memcpy_w.o)
    0x0800022c   0x00000006   Code   RO          581    .text               c_w.l(heapauxi.o)
    0x08000232   0x0000004a   Code   RO          618    .text               c_w.l(sys_stackheap_outer.o)
    0x0800027c   0x00000012   Code   RO          620    .text               c_w.l(exit.o)
    0x0800028e   0x00000002   PAD
    0x08000290   0x00000008   Code   RO          628    .text               c_w.l(libspace.o)
    0x08000298   0x0000000c   Code   RO          689    .text               c_w.l(sys_exit.o)
    0x080002a4   0x00000002   Code   RO          700    .text               c_w.l(use_no_semi.o)
    0x080002a6   0x00000000   Code   RO          702    .text               c_w.l(indicate_semi.o)
    0x080002a6   0x00000002   PAD
    0x080002a8   0x00000018   Code   RO            4    i.DMA1_Channel7_IRQHandler  main.o
    0x080002c0   0x0000002c   Code   RO          105    i.IO_init           io.o
    0x080002ec   0x00000008   Code   RO          534    i.SetSysClock       system_stm32f10x.o
    0x080002f4   0x000000e0   Code   RO          535    i.SetSysClockTo72   system_stm32f10x.o
    0x080003d4   0x00000040   Code   RO            5    i.SysTick_Handler   main.o
    0x08000414   0x00000060   Code   RO          537    i.SystemInit        system_stm32f10x.o
    0x08000474   0x0000001c   Code   RO          106    i.TIM1_init         io.o
    0x08000490   0x000000c4   Code   RO          377    i.TIM2_IRQHandler   sensors.o
    0x08000554   0x00000174   Code   RO          378    i.TIM3_IRQHandler   sensors.o
    0x080006c8   0x00000178   Code   RO          379    i.TIM4_IRQHandler   sensors.o
    0x08000840   0x00000020   Code   RO            6    i.USART2_IRQHandler  main.o
    0x08000860   0x000000ec   Code   RO          491    i.add_Error         exceptions.o
    0x0800094c   0x00000048   Code   RO          107    i.bumper_init       io.o
    0x08000994   0x000000ac   Code   RO          237    i.bus_Slave_RX_Buffer_Add  databus_slave.o
    0x08000a40   0x0000005c   Code   RO          238    i.bus_Slave_RX_Buffer_Reset  databus_slave.o
    0x08000a9c   0x00000074   Code   RO          240    i.bus_Slave_Send_Broadcast_Response  databus_slave.o
    0x08000b10   0x00000138   Code   RO          243    i.bus_Slave_Validate_Packet  databus_slave.o
    0x08000c48   0x00000024   Code   RO          380    i.clearDisconnectErrorUltrasonic  sensors.o
    0x08000c6c   0x00000024   Code   RO          381    i.clearOutOfRangeErrorUltrasonic  sensors.o
    0x08000c90   0x00000134   Code   RO          185    i.comms_init        comms_slave.o
    0x08000dc4   0x00000038   Code   RO          382    i.echo_config_1     sensors.o
    0x08000dfc   0x00000038   Code   RO          383    i.echo_config_2     sensors.o
    0x08000e34   0x00000194   Code   RO          384    i.echo_pulse_in     sensors.o
    0x08000fc8   0x00000018   Code   RO          322    i.get_Data          data.o
    0x08000fe0   0x00000040   Code   RO          323    i.increment_Data    data.o
    0x08001020   0x0000001c   Code   RO          385    i.increment_counter  sensors.o
    0x0800103c   0x00000014   Code   RO          245    i.init_DATAbus_Slave  databus_slave.o
    0x08001050   0x00000014   Code   RO          186    i.init_DATAbus_TX_Queue  comms_slave.o
    0x08001064   0x0000005c   Code   RO          324    i.init_Table        data.o
    0x080010c0   0x000000a0   Code   RO            7    i.main              main.o
    0x08001160   0x0000003c   Code   RO          161    i.port_clock_init   clocks.o
    0x0800119c   0x00000040   Code   RO          387    i.read_tilt         sensors.o
    0x080011dc   0x00000034   Code   RO          492    i.remove_Error      exceptions.o
    0x08001210   0x000000a4   Code   RO          187    i.send_Next_DATAbus_TX  comms_slave.o
    0x080012b4   0x00000014   Code   RO          325    i.set_Data          data.o
    0x080012c8   0x0000001c   Code   RO          188    i.set_TX_Complete_DATAbus_TX  comms_slave.o
    0x080012e4   0x0000002c   Code   RO          388    i.throwDisconnectErrorUltrasonic  sensors.o
    0x08001310   0x0000002c   Code   RO          389    i.throwOutOfRangeErrorUltrasonic  sensors.o
    0x0800133c   0x00000030   Code   RO          108    i.tilt_init         io.o
    0x0800136c   0x000000f8   Code   RO          109    i.tim_input_init    io.o
    0x08001464   0x00000078   Code   RO          110    i.tim_output_init   io.o
    0x080014dc   0x0000012c   Code   RO          326    i.transmit_Data     data.o
    0x08001608   0x00000084   Code   RO          390    i.trigger_pulse_1   sensors.o
    0x0800168c   0x00000084   Code   RO          391    i.trigger_pulse_2   sensors.o
    0x08001710   0x0000017c   Code   RO          246    i.update_DATAbus_Slave  databus_slave.o
    0x0800188c   0x0000003e   Code   RO          585    x$fpl$ffixu         fz_ws.l(ffixu.o)
    0x080018ca   0x00000002   PAD
    0x080018cc   0x00000026   Code   RO          589    x$fpl$ffltu         fz_ws.l(fflt_clz.o)
    0x080018f2   0x00000002   PAD
    0x080018f4   0x00000102   Code   RO          595    x$fpl$fmul          fz_ws.l(fmul.o)
    0x080019f6   0x0000008c   Code   RO          598    x$fpl$fnaninf       fz_ws.l(fnaninf.o)
    0x08001a82   0x0000000a   Code   RO          600    x$fpl$fretinf       fz_ws.l(fretinf.o)
    0x08001a8c   0x00000000   Code   RO          602    x$fpl$usenofp       fz_ws.l(usenofp.o)
    0x08001a8c   0x00000020   Data   RO          755    Region$$Table       anon$$obj.o


    Execution Region RW_IRAM1 (Base: 0x20000000, Size: 0x00001c10, Max: 0x00005000, ABSOLUTE)

    Base Addr    Size         Type   Attr      Idx    E Section Name        Object

    0x20000000   0x0000000c   Data   RW            8    .data               main.o
    0x2000000c   0x00000012   Data   RW          248    .data               databus_slave.o
    0x2000001e   0x00000002   Data   RW          328    .data               data.o
    0x20000020   0x00000019   Data   RW          392    .data               sensors.o
    0x20000039   0x00000003   PAD
    0x2000003c   0x00000014   Data   RW          538    .data               system_stm32f10x.o
    0x20000050   0x00000048   Zero   RW          189    .bss                comms_slave.o
    0x20000098   0x0000110c   Zero   RW          247    .bss                databus_slave.o
    0x200011a4   0x0000040a   Zero   RW          327    .bss                data.o
    0x200015ae   0x00000002   PAD
    0x200015b0   0x00000060   Zero   RW          629    .bss                c_w.l(libspace.o)
    0x20001610   0x00000200   Zero   RW          525    HEAP                startup_stm32f10x_md.o
    0x20001810   0x00000400   Zero   RW          524    STACK               startup_stm32f10x_md.o


==============================================================================

Image component sizes


      Code (inc. data)   RO Data    RW Data    ZI Data      Debug   Object Name

        60          6          0          0          0        418   clocks.o
       520         60          0          0         72      28023   comms_slave.o
       500         26          0          2       1034       3746   data.o
      1092        128          0         18       4364       5855   databus_slave.o
       288          0          0          0          0       1471   exceptions.o
       560         60          0          0          0       2451   io.o
       280         30          0         12          0     209550   main.o
      1976        136          0         25          0       8461   sensors.o
        64         26        236          0       1536        828   startup_stm32f10x_md.o
       328         28          0         20          0       2325   system_stm32f10x.o

    ----------------------------------------------------------------------
      5668        500        268         80       7008     263128   Object Totals
         0          0         32          0          0          0   (incl. Generated)
         0          0          0          3          2          0   (incl. Padding)

    ----------------------------------------------------------------------

      Code (inc. data)   RO Data    RW Data    ZI Data      Debug   Library Member Name

         8          0          0          0          0         68   __main.o
         0          0          0          0          0          0   __rtentry.o
        12          0          0          0          0          0   __rtentry2.o
         6          0          0          0          0          0   __rtentry4.o
        52          8          0          0          0          0   __scatter.o
        26          0          0          0          0          0   __scatter_copy.o
        28          0          0          0          0          0   __scatter_zi.o
        18          0          0          0          0         80   exit.o
         6          0          0          0          0        152   heapauxi.o
         0          0          0          0          0          0   indicate_semi.o
         2          0          0          0          0          0   libinit.o
         2          0          0          0          0          0   libinit2.o
         2          0          0          0          0          0   libshutdown.o
         2          0          0          0          0          0   libshutdown2.o
         8          4          0          0         96         68   libspace.o
       100          0          0          0          0         80   rt_memcpy_w.o
         2          0          0          0          0          0   rtexit.o
        10          0          0          0          0          0   rtexit2.o
        12          4          0          0          0         68   sys_exit.o
        74          0          0          0          0         80   sys_stackheap_outer.o
         2          0          0          0          0         68   use_no_semi.o
        62          4          0          0          0         84   ffixu.o
        38          0          0          0          0         68   fflt_clz.o
       258          4          0          0          0         84   fmul.o
       140          4          0          0          0         84   fnaninf.o
        10          0          0          0          0         68   fretinf.o
         0          0          0          0          0          0   usenofp.o

    ----------------------------------------------------------------------
       892         28          0          0         96       1052   Library Totals
        12          0          0          0          0          0   (incl. Padding)

    ----------------------------------------------------------------------

      Code (inc. data)   RO Data    RW Data    ZI Data      Debug   Library Name

       372         16          0          0         96        664   c_w.l
       508         12          0          0          0        388   fz_ws.l

    ----------------------------------------------------------------------
       892         28          0          0         96       1052   Library Totals

    ----------------------------------------------------------------------

==============================================================================


      Code (inc. data)   RO Data    RW Data    ZI Data      Debug   

      6560        528        268         80       7104     261524   Grand Totals
      6560        528        268         80       7104     261524   ELF Image Totals
      6560        528        268         80          0          0   ROM Totals

==============================================================================

    Total RO  Size (Code + RO Data)                 6828 (   6.67kB)
    Total RW  Size (RW Data + ZI Data)              7184 (   7.02kB)
    Total ROM Size (Code + RO Data + RW Data)       6908 (   6.75kB)

==============================================================================

